:020000040800F2
:1000000000500020F1190008411A0008411A0008A8
:10001000411A0008411A0008411A000800000000B7
:10002000000000000000000000000000411A00086D
:10003000411A000800000000411A0008411A000897
:10004000411A0008411A0008411A0008411A000824
:10005000411A0008411A0008411A0008411A000814
:10006000411A0008411A0008411A0008411A000804
:10007000411A0008411A0008411A0008411A0008F4
:10008000411A0008411A0008411A0008411A0008E4
:10009000411A0008411A0008411A0008411A0008D4
:1000A000411A0008411A0008411A0008411A0008C4
:1000B000411A0008411A0008411A0008411A0008B4
:1000C000411A0008411A0008411A0008411A0008A4
:1000D000411A0008411A0008411A0008411A000894
:1000E000411A0008411A000800000000411A0008E7
:1000F000411A0008411A0008411A0008411A000874
:10010000411A0008411A0008411A0008411A000863
:10011000411A0008411A0008411A0008411A000853
:10012000411A0008411A0008411A0008411A000843
:1001300010B5054C237833B9044B13B10448AFF321
:1001400000800123237010BDC801002000000000C2
:100150003847000808B5034B1BB103490348AFF308
:10016000008008BD00000000CC01002038470008D6
:10017000034613F8012B002AFBD1181A01387047E7
:1001800081F0004102E000BF83F0004330B54FEA48
:1001900041044FEA430594EA050F08BF90EA020FB5
:1001A0001FBF54EA000C55EA020C7FEA645C7FEA48
:1001B000655C00F0E2804FEA5454D4EB5555B8BF6B
:1001C0006D420CDD2C4480EA020281EA030382EADC
:1001D000000083EA010180EA020281EA0303362D6E
:1001E00088BF30BD11F0004F4FEA01314FF4801C41
:1001F0004CEA113102D0404261EB410113F0004F53
:100200004FEA03334CEA133302D0524263EB430309
:1002100094EA050F00F0A780A4F10104D5F1200EA7
:100220000DDB02FA0EFC22FA05F2801841F1000102
:1002300003FA0EF2801843FA05F359410EE0A5F1D6
:1002400020050EF1200E012A03FA0EFC28BF4CF007
:10025000020C43FA05F3C01851EBE37101F00045BD
:1002600007D54FF0000EDCF1000C7EEB00006EEBCA
:100270000101B1F5801F1BD3B1F5001F0CD3490854
:100280005FEA30004FEA3C0C04F101044FEA4452AB
:1002900012F5800F80F09A80BCF1004F08BF5FEA32
:1002A000500C50F1000041EB045141EA050130BD12
:1002B0005FEA4C0C404141EB0101013C28BFB1F524
:1002C000801FE9D291F0000F04BF01460020B1FA6F
:1002D00081F308BF2033A3F10B03B3F120020CDA42
:1002E0000C3208DD02F1140CC2F10C0201FA0CF020
:1002F00021FA02F10CE002F11402D8BFC2F1200C85
:1003000001FA02F120FA0CFCDCBF41EA0C0190403A
:10031000E41AA2BF01EB0451294330BD6FEA040483
:100320001F3C1CDA0C340EDC04F11404C4F120026E
:1003300020FA04F001FA02F340EA030021FA04F380
:1003400045EA030130BDC4F10C04C4F1200220FAD7
:1003500002F001FA04F340EA0300294630BD21FA15
:1003600004F0294630BD94F0000F83F4801306BFDB
:1003700081F480110134013D4EE77FEA645C18BFCF
:100380007FEA655C29D094EA050F08BF90EA020F66
:1003900005D054EA000C04BF1946104630BD91EA5E
:1003A000030F1EBF0021002030BD5FEA545C05D161
:1003B0004000494128BF41F0004130BD14F58004A0
:1003C0003CBF01F5801130BD01F0004545F0FE4114
:1003D00041F470014FF0000030BD7FEA645C1ABF49
:1003E000194610467FEA655C1CBF0B46024650EA80
:1003F000013406BF52EA033591EA030F41F40021AC
:1004000030BD00BF90F0000F04BF0021704730B531
:100410004FF4806404F132044FF000054FF0000106
:1004200050E700BF90F0000F04BF0021704730B5C7
:100430004FF4806404F1320410F0004548BF40429C
:100440004FF000013EE700BF42004FEAE2014FEAF1
:1004500031014FEA02701FBF12F07F4393F07F4FCC
:1004600081F06051704732F07F4208BF704793F0CF
:100470007F4F04BF41F40021704730B54FF46074E2
:1004800001F0004521F000411CE700BF50EA0102E5
:1004900008BF704730B54FF000050AE050EA01028E
:1004A00008BF704730B511F0004502D5404261EBFE
:1004B00041014FF4806404F132045FEA915C3FF43F
:1004C000D8AE4FF003025FEADC0C18BF03325FEADC
:1004D000DC0C18BF033202EBDC02C2F1200300FA8D
:1004E00003FC20FA02F001FA03FE40EA0E0021FAB2
:1004F00002F11444BDE600BF70B54FF0FF0C4CF4A0
:10050000E06C1CEA11541DBF1CEA135594EA0C0F51
:1005100095EA0C0F00F0DEF82C4481EA030621EA8C
:100520004C5123EA4C5350EA013518BF52EA0335C7
:1005300041F4801143F4801338D0A0FB02CE4FF079
:100540000005E1FB02E506F00042E0FB03E54FF0A9
:100550000006E1FB03569CF0000F18BF4EF0010EA1
:10056000A4F1FF04B6F5007F64F5407404D25FEA9D
:100570004E0E6D4146EB060642EAC62141EA555150
:100580004FEAC52040EA5E504FEACE2EB4F1FD0C92
:1005900088BFBCF5E06F1ED8BEF1004F08BF5FEA10
:1005A000500E50F1000041EB045170BD06F00046C2
:1005B00046EA010140EA020081EA0301B4EB5C046F
:1005C000C2BFD4EB0C0541EA045170BD41F4801167
:1005D0004FF0000E013C00F3AB8014F1360FDEBF8C
:1005E000002001F0004170BDC4F10004203C35DA68
:1005F0000C341BDC04F11404C4F1200500FA05F3EB
:1006000020FA04F001FA05F240EA020001F000428B
:1006100021F0004110EBD37021FA04F642EB060101
:100620005EEA430E08BF20EAD37070BDC4F10C042B
:10063000C4F1200500FA04F320FA05F001FA04F2EF
:1006400040EA020001F0004110EBD37041F10001DB
:100650005EEA430E08BF20EAD37070BDC4F12005E6
:1006600000FA05F24EEA020E20FA04F301FA05F24E
:1006700043EA020321FA04F001F0004121FA04F2F6
:1006800020EA020000EBD3705EEA430E08BF20EAC6
:10069000D37070BD94F0000F0FD101F00046400000
:1006A00041EB010111F4801F08BF013CF7D041EA82
:1006B000060195F0000F18BF704703F00046520086
:1006C00043EB030313F4801F08BF013DF7D043EA57
:1006D0000603704794EA0C0F0CEA135518BF95EA0D
:1006E0000C0F0CD050EA410618BF52EA4306D1D194
:1006F00081EA030101F000414FF0000070BD50EAB3
:10070000410606BF1046194652EA430619D094EA3C
:100710000C0F02D150EA013613D195EA0C0F05D126
:1007200052EA03361CBF104619460AD181EA03017A
:1007300001F0004141F0FE4141F470014FF0000032
:1007400070BD41F0FE4141F4780170BD70B54FF0CD
:10075000FF0C4CF4E06C1CEA11541DBF1CEA13554D
:1007600094EA0C0F95EA0C0F00F0A7F8A4EB05042F
:1007700081EA030E52EA03354FEA013100F0888026
:100780004FEA03334FF0805545EA131343EA1263EF
:100790004FEA022245EA111545EA10654FEA0026A4
:1007A0000EF000419D4208BF964244F1FD0404F55D
:1007B000407402D25B084FEA3202B61A65EB0305B9
:1007C0005B084FEA32024FF480104FF4002CB6EB76
:1007D000020E75EB030E22BFB61A754640EA0C00F6
:1007E0005B084FEA3202B6EB020E75EB030E22BF36
:1007F000B61A754640EA5C005B084FEA3202B6EB77
:10080000020E75EB030E22BFB61A754640EA9C0035
:100810005B084FEA3202B6EB020E75EB030E22BF05
:10082000B61A754640EADC0055EA060E18D04FEAC3
:10083000051545EA16754FEA06164FEAC30343EA63
:1008400052734FEAC2025FEA1C1CC0D111F4801F30
:100850000BD141EA00014FF000004FF0004CB6E729
:1008600011F4801F04BF01430020B4F1FD0C88BFC8
:10087000BCF5E06F3FF6AFAEB5EB030C04BFB6EBD3
:10088000020C5FEA500C50F1000041EB045170BDC6
:100890000EF0004E4EEA113114EB5C04C2BFD4EBF3
:1008A0000C0541EA045170BD41F480114FF0000E77
:1008B000013C90E645EA060E8DE60CEA135594EAF3
:1008C0000C0F08BF95EA0C0F3FF43BAF94EA0C0FF6
:1008D0000AD150EA01347FF434AF95EA0C0F7FF46B
:1008E00025AF104619462CE795EA0C0F06D152EABF
:1008F00003353FF4FDAE1046194622E750EA4106A3
:1009000018BF52EA43067FF4C5AE50EA41047FF4B3
:100910000DAF52EA43057FF4EBAE12E74FF0FF3C18
:1009200006E000BF4FF0010C02E000BF4FF0010CE9
:100930004DF804CD4FEA410C7FEA6C5C4FEA430C62
:1009400018BF7FEA6C5C1BD001B050EA410C0CBFB1
:1009500052EA430C91EA030F02BF90EA020F002013
:10096000704710F1000F91EA030F58BF994208BF7A
:1009700090422CBFD8176FEAE37040F00100704737
:100980004FEA410C7FEA6C5C02D150EA013C07D18E
:100990004FEA430C7FEA6C5CD6D152EA033CD3D0D9
:1009A0005DF8040B704700BF8446104662468C46D3
:1009B0001946634600E000BF01B5FFF7B7FF002806
:1009C00048BF10F1000F01BD4DF808EDFFF7F4FF2F
:1009D0000CBF012000205DF808FB00BF4DF808EDBA
:1009E000FFF7EAFF34BF012000205DF808FB00BFDD
:1009F0004DF808EDFFF7E0FF94BF012000205DF8FF
:100A000008FB00BF4DF808EDFFF7CEFF94BF0120B3
:100A100000205DF808FB00BF4DF808EDFFF7C4FFAC
:100A200034BF012000205DF808FB00BF4FEA4102FF
:100A300012F5001215D211D56FF47873B3EB625230
:100A400012D94FEAC12343F0004343EA505311F057
:100A5000004F23FA02F018BF404270474FF00000E9
:100A6000704750EA013005D111F0004008BF6FF027
:100A7000004070474FF00000704700BF4A0011D29D
:100A800012F5001211D20DD56FF47873B3EB6252E8
:100A90000ED44FEAC12343F0004343EA505323FAF4
:100AA00002F070474FF00000704750EA013002D169
:100AB0004FF0FF3070474FF0000070474FEA41029F
:100AC000B2F1E04324BFB3F5001CDCF1FE5C0DD9AC
:100AD00001F0004C4FEAC0024CEA5070B2F1004FF6
:100AE00040EB830008BF20F00100704711F0804FF9
:100AF00021D113F13872BCBF01F00040704741F4BE
:100B000080114FEA5252C2F11802C2F1200C10FAC1
:100B10000CF320FA02F018BF40F001004FEAC123A5
:100B20004FEAD32303FA0CFC40EA0C0023FA02F349
:100B30004FEA4303CCE77FEA625307D150EA01331F
:100B40001EBF4FF0FE4040F44000704701F00040EF
:100B500040F0FE4040F40000704700BF80F00040CD
:100B600002E000BF81F0004142001FBF5FEA410385
:100B700092EA030F7FEA226C7FEA236C6AD04FEA85
:100B80001262D2EB1363C1BFD218414048404140CA
:100B9000B8BF5B42192B88BF704710F0004F40F47C
:100BA000000020F07F4018BF404211F0004F41F498
:100BB000000121F07F4118BF494292EA030F3FD064
:100BC000A2F1010241FA03FC10EB0C00C3F1200377
:100BD00001FA03F100F0004302D5494260EB400006
:100BE000B0F5000F13D3B0F1807F06D340084FEA71
:100BF000310102F10102FE2A51D2B1F1004F40EB66
:100C0000C25008BF20F0010040EA030070474900CD
:100C100040EB0000013A28BFB0F5000FEDD2B0FA6A
:100C200080FCACF1080CB2EB0C0200FA0CF0AABF8D
:100C300000EBC25052421843BCBFD040184370472B
:100C400092F0000F81F4000106BF80F40000013231
:100C5000013BB5E74FEA41037FEA226C18BF7FEA08
:100C6000236C21D092EA030F04D092F0000F08BF4A
:100C70000846704790EA010F1CBF0020704712F031
:100C80007F4F04D1400028BF40F00040704712F170
:100C900000723CBF00F50000704700F0004343F0D5
:100CA000FE4040F4000070477FEA226216BF08460B
:100CB0007FEA23630146420206BF5FEA412390EACE
:100CC000010F40F4800070474FF0000304E000BFC4
:100CD00010F0004348BF40425FEA000C08BF704775
:100CE00043F0964301464FF000001CE050EA010239
:100CF00008BF70474FF000030AE000BF50EA01024E
:100D000008BF704711F0004302D5404261EB41013A
:100D10005FEA010C02BF84460146002043F0B6435F
:100D200008BFA3F18053A3F50003BCFA8CF2083A84
:100D3000A3EBC25310DB01FA02FC634400FA02FC8D
:100D4000C2F12002BCF1004F20FA02F243EB020094
:100D500008BF20F00100704702F1200201FA02FCF6
:100D6000C2F1200250EA4C0021FA02F243EB0200E9
:100D700008BF20EADC7070474FF0FF0C1CEAD0522D
:100D80001EBF1CEAD15392EA0C0F93EA0C0F6FD0EE
:100D90001A4480EA010C400218BF5FEA41211ED0CC
:100DA0004FF0006343EA501043EA5111A0FB0131B8
:100DB0000CF00040B1F5000F3EBF490041EAD3718D
:100DC0005B0040EA010062F17F02FD2A1DD8B3F109
:100DD000004F40EBC25008BF20F00100704790F078
:100DE000000F0CF0004C08BF49024CEA502040EACA
:100DF00051207F3AC2BFD2F1FF0340EAC250704790
:100E000040F400004FF00003013A5DDC12F1190FCD
:100E1000DCBF00F000407047C2F10002410021FA3F
:100E200002F1C2F1200200FA02FC5FEA310040F157
:100E3000000053EA4C0308BF20EADC70704792F0D0
:100E4000000F00F0004C02BF400010F4000F013A08
:100E5000F9D040EA0C0093F0000F01F0004C02BF03
:100E6000490011F4000F013BF9D041EA0C018FE772
:100E70000CEAD15392EA0C0F18BF93EA0C0F0AD078
:100E800030F0004C18BF31F0004CD8D180EA01009E
:100E900000F00040704790F0000F17BF90F0004F37
:100EA000084691F0000F91F0004F14D092EA0C0F19
:100EB00001D142020FD193EA0C0F03D14B0218BFAC
:100EC000084608D180EA010000F0004040F0FE40F2
:100ED00040F40000704740F0FE4040F4400070478E
:100EE0004FF0FF0C1CEAD0521EBF1CEAD15392EA0D
:100EF0000C0F93EA0C0F69D0A2EB030280EA010CFD
:100F000049024FEA402037D04FF0805343EA111195
:100F100043EA10130CF000408B4238BF5B0042F1F3
:100F20007D024FF4000C8B4224BF5B1A40EA0C0098
:100F3000B3EB510F24BFA3EB510340EA5C00B3EBCA
:100F4000910F24BFA3EB910340EA9C00B3EBD10FB8
:100F500024BFA3EBD10340EADC001B0118BF5FEA0A
:100F60001C1CE0D1FD2A3FF650AF8B4240EBC25033
:100F700008BF20F0010070470CF0004C4CEA5020F4
:100F80007F32C2BFD2F1FF0340EAC250704740F443
:100F900000004FF00003013A37E792F0000F00F035
:100FA000004C02BF400010F4000F013AF9D040EAB3
:100FB0000C0093F0000F01F0004C02BF490011F447
:100FC000000F013BF9D041EA0C0195E70CEAD1533F
:100FD00092EA0C0F08D142027FF47DAF93EA0C0F26
:100FE0007FF470AF084676E793EA0C0F04D14B020A
:100FF0003FF44CAF08466EE730F0004C18BF31F0BC
:10100000004CCAD130F000427FF45CAF31F00043B5
:101010007FF43CAF5FE700BF38B5002200230446F1
:101020000D46FFF7DBFC28B920462946BDE83840CD
:1010300000F00AB8204605F1004100F005F84042F2
:1010400061EB410138BD00BFD0B500220B4B064615
:101050000F46FFF751FAFFF711FD0446FFF7D2F9EB
:101060000022074BFFF748FA02460B463046394646
:10107000FFF78AF8FFF702FD2146D0BD0000F03DE2
:101080000000F04180B400AF034B10221A6000BF93
:10109000BD4680BC704700BF1408014080B400AF5B
:1010A000034B10221A6000BFBD4680BC704700BFD2
:1010B0001008014080B400AF034B01221A6000BF4A
:1010C000BD4680BC704700BF140C014080B400AF27
:1010D000034B01221A6000BFBD4680BC704700BFB1
:1010E000100C014080B400AF064B1B6803F00203F4
:1010F000002B14BF01230023DBB21846BD4680BC81
:10110000704700BF0808014080B400AF034B4FF4A4
:1011100000521A6000BFBD4680BC704714100140E9
:1011200080B400AF034B4FF400521A6000BFBD46BD
:1011300080BC70471010014080B483B000AF78606D
:1011400000E000BF7B685A1E7A60002BF9D100BF17
:1011500000BF0C37BD4680BC7047000080B500AFB3
:10116000354B1B68344A43F4805343F01C0313602F
:10117000324B1B68314A23F4702313602F4B1B68DA
:101180002E4A43F4403313602C4B1B682B4A23F444
:1011900070031360294B1B68284A43F43003136023
:1011A000264B1B68254A23F070631360234B1B6892
:1011B000224A43F080631360204B1B681F4A23F0D0
:1011C000704313601D4B1B681C4A43F0304313608F
:1011D0001A4B1B68194A23F0F0031360174B1B6866
:1011E000164A43F040031360154B1B68144A23F062
:1011F0000F031360124B1B68114A43F00303136083
:10120000104B1B680F4A23F4700313600D4B1B68CF
:101210000C4A43F400131360FFF740FFFFF756FF3B
:10122000094B14221A60084B1B68074A43F040031D
:10123000136000BF80BD00BF1810024000080140CD
:10124000000C0140041001400030014080B483B024
:1012500000AF0346FB7100BF0B4B1B6803F002039A
:10126000002BF9D0094AFB79136000BF064B1B68BD
:1012700003F00103002BF9D0044B1B68DBB21846C6
:101280000C37BD4680BC7047083001400C3001402F
:1012900080B582B000AF03460A46FB711346BB71AE
:1012A000FFF7F0FEFB7963F07F03DBB21846FFF730
:1012B000CDFFBB791846FFF7C9FFFFF7EFFE00BF70
:1012C0000837BD4680BD80B584B000AF0346FB71D2
:1012D000FFF7D8FEFB7903F07F03DBB21846FFF778
:1012E000B5FF0020FFF7B2FF0346FB73FFF7D6FE02
:1012F000FB7B18461037BD4680BD80B500AFFFF7B9
:10130000D9FE44F62060FFF717FFFFF7DFFE44F633
:101310002060FFF711FF80210120FFF7B9FF42F2A3
:101320001070FFF709FF81210120FFF7B1FF6C2149
:101330000620FFF7ADFF80210720FFF7A9FF00215E
:101340000820FFF7A5FF8F210920FFF7A1FF232128
:101350000C20FFF79DFF80210E20FFF799FF002151
:101360000F20FFF795FF72211D20FFF791FF7421D9
:101370001E20FFF78DFF40214020FFF789FFFF214E
:101380001220FFF785FF00BF80BD80B584B000AF9D
:1013900078600B46FB70FB78002B53D00E20FFF7D4
:1013A00092FF034619460D20FFF772FFFFF76AFE12
:1013B0008020FFF74BFF0023FB7309E0FB7B7A687B
:1013C00013441B781846FFF741FFFB7B0133FB7387
:1013D000FA7BFB789A42F1D3FFF760FEFB7819465F
:1013E0002220FFF755FFFF211220FFF751FF832135
:1013F0000120FFF74DFF0023BB6011E0FFF772FEF5
:101400000346002B12D11220FFF75DFF0346BB738A
:10141000BB7B03F00803002B0AD1BB680133BB6020
:10142000BB686FF078429342E8D302E000BF00E06F
:1014300000BF08211220FFF72BFF81210120FFF7B9
:1014400027FF00E000BF1037BD4680BD80B400AF6D
:10145000154B1B68144A43F4804343F004031360A4
:10146000124B1B68114A23F0F00313600F4B1B68EB
:101470000E4A43F0B00313600C4B1B680B4A23F475
:1014800070631360094B1B68084A43F48063136060
:10149000074B40F241321A60064B42F20C021A60CE
:1014A00000BFBD4680BC70471810024004080140D0
:1014B000083801400C38014080B400AF074B1B686E
:1014C00003F02003002B03D0054B1B68DBB201E0C7
:1014D0004FF0FF331846BD4680BC704700380140CE
:1014E0000438014000000000B0B588B000AF78605B
:1014F0000B46FB707868FEF73BFE0346032B01D8D2
:1015000000239CE00023FB610023BB614FF000033C
:101510007B61FB784E2B02D0FB78532B2DD17B685F
:101520001B783B737B6801331B787B730023BB7391
:1015300007F10C03184600F087FAF8617B68023364
:10154000184600F081FAB8617B680233184600F053
:1015500078FA04460D46B869FEF764FF02460B466A
:1015600020462946FEF710FE02460B461046194655
:10157000FFF7A4FA03467B6130E07B681B783B727F
:101580007B6801331B787B727B6802331B78BB72EC
:101590000023FB7207F10803184600F055FAF861C2
:1015A0007B680333184600F04FFAB8617B68033359
:1015B000184600F046FA04460D46B869FEF732FFB9
:1015C00002460B4620462946FEF7DEFD02460B4644
:1015D00010461946FFF772FA03467B61F869FFF778
:1015E00077FB0446B869FFF773FB03467969184631
:1015F000FFF7BAFA034616491846FFF771FC03468F
:1016000019462046FFF7B0FA03463B61FB78532B9F
:1016100002D0FB78572B03D13B6983F000433B6139
:101620003869FEF711FF08A3D3E90023FEF764FF32
:1016300002460B4610461946FFF7F8F903461846CE
:101640002037BD46B0BD00BF00000000D01263418E
:101650000000704280B5A2B000AFFFF77FFDFFF73A
:10166000F5FEFFF733FDFFF748FEFFF74DFD7A4823
:10167000FFF762FDFFF754FDFFF71EFFF866FB6EF4
:10168000002BC0F2E480FB6E87F86B30734B1B8835
:10169000FE2B0AD8714B1B885A1C91B26F4A1180DD
:1016A00019466F4A97F86B30535497F86B300A2BF2
:1016B00040F0CD80694B1B881A46694B0021995434
:1016C000664B00221A8007226649654801F066F9D8
:1016D0000346002B08D007226349614801F05EF9F8
:1016E0000346002B40F0B3803B1D502200211846DA
:1016F00001F03FF90023C7F88430594BC7F8803018
:101700001BE0D7F884305A1CC7F884209B0088332C
:101710003B44D7F8802043F8842C2C21D7F8800054
:1017200001F02FF978667B6E002B10D07B6E0022C3
:101730001A707B6E0133C7F88030D7F880301B7881
:10174000002B05D0D7F88430132BDADD00E000BF82
:101750000023FB674E2387F87B3000237B674523FC
:1017600087F8733007223F493D4801F017F90346D7
:10177000002B0CD1FB68FB673B691B7887F87B303B
:101780007B697B67BB691B7887F8733013E007229E
:101790003549334801F002F90346002B0BD13B6970
:1017A000FB677B691B7887F87B30BB697B67FB69CC
:1017B0001B7887F87330FB6F002B48D07B6F002BB2
:1017C00045D0FB6F1B78002B41D07B6F1B78002B23
:1017D0003DD097F87B301946F86FFFF785FE3866E5
:1017E00097F873301946786FFFF77EFEF8653B6E09
:1017F0001B0EDBB287F854303B6E1B14DBB287F84C
:1018000055303B6E1B12DBB287F856303B6EDBB2B5
:1018100087F85730FB6D1B0EDBB287F85830FB6D35
:101820001B14DBB287F85930FB6D1B12DBB287F853
:101830005A30FB6DDBB287F85B30FFF765FC07F1D0
:10184000540308211846FFF7A0FDFFF769FC4FF489
:101850007A70FFF771FC0FE7E0930400E4020020C8
:10186000E4010020504700085847000880B400AF4A
:1018700001231846BD4680BC704780B582B000AFDA
:101880007860396001F0E2F8034616221A604FF0E2
:10189000FF3318460837BD4680BD80B582B000AF23
:1018A00078604FF0FF317868FFF7E7FF00BFFDE792
:1018B00080B586B000AFF860B9607A6000237B61C4
:1018C0000AE0AFF300800146BB685A1CBA60CAB296
:1018D0001A707B6901337B617A697B689A42F0DB1D
:1018E0007B6818461837BD4680BD80B586B000AF0E
:1018F000F860B9607A6000237B6109E0BB685A1C1C
:10190000BA601B781846AFF300807B6901337B61B6
:101910007A697B689A42F1DB7B6818461837BD46C6
:1019200080BD80B483B000AF78604FF0FF331846BD
:101930000C37BD4680BC704780B483B000AF786080
:1019400039603B684FF400525A60002318460C3748
:10195000BD4680BC704780B483B000AF786001237F
:1019600018460C37BD4680BC704780B485B000AFC8
:10197000F860B9607A60002318461437BD4680BC11
:101980007047000080B586B000AF7860144A154BF0
:10199000D31A7B617B693B61134B1B68002B02D11F
:1019A000114B124A1A60104B1A687B6813443A694B
:1019B0009A4207D201F04AF803460C221A604FF00F
:1019C000FF3309E0084B1B68FB60074B1A687B6814
:1019D0001344054A1360FB6818461837BD4680BD9E
:1019E0000050002000040000E8020020380400201D
:1019F0000D488546AFF300800C480D490D4A002381
:101A000002E0D458C4500433C4188C42F9D30A4AB3
:101A10000A4C002301E013600432A242FBD301F020
:101A20001BF8FFF717FEFEE7005000200000002023
:101A3000C8010020284B0008C801002038040020FD
:101A4000FEE7002100F000BE0A22002100F082BE65
:101A50002DE9F0410F46904601F0E8FF04460D469F
:101A6000B8F1000F11D0C7F30A53C3F16B03002B79
:101A70000BDD00241B0503F17F5505F540152246BB
:101A80002B46FEF739FD04460D4620462946BDE8A3
:101A9000F0810000000000002DE9F04F9FB0179288
:101AA00000220C461A924FF0000A4FF0000B0A4633
:101AB0000590199211782B2948D036D80D2930D8A5
:101AC000082930D8002939D000220E92199D2A7891
:101AD000302A40F0B0806A7802F0DF02582A6CD1D8
:101AE00002930E9B8F4A01931AAB009305981BAB90
:101AF00019A901F09DF810F00F06044605D0062E36
:101B000026D10023013519950E93179B002B40F029
:101B100082850E9BBBB150460BF100411FB0BDE862
:101B2000F08F2029D0D10132C3E72D29CCD101215A
:101B30000E91511C19915278002AC7D1179B199404
:101B4000002B40F0668550465946E7E70021EFE755
:101B50001A9A3AB135211CA802F058F81A9905983A
:101B600001F038FC013E1B9A042E06D8DFE806F08F
:101B700014031D201400DDE91CABE10548BF4BF048
:101B8000004B2BF000431B0D1B05002BBDD100F0BB
:101B90005DFF22230360B8E702F23342DDE91CA3B4
:101BA00023F4801343EA025BE7E7DFF87CB1E4E764
:101BB0006FF0004B4FF0FF3ADFE7199B5A1C199268
:101BC0005B78302BF9D0002B9FD0012300270A220D
:101BD000B9460893199B0B970C9319980578A5F1B2
:101BE0003003D9B2092928D90122504900F0D6FE84
:101BF000002832D000202A4603464D460A90652A26
:101C000001D0452A14D11DB9089A024396D0002567
:101C1000199C621C199262782B2A7AD02D2A7ED0C8
:101C20004FF0000CA2F13001092940F2858019948F
:101C30004FF00008A5E00023C8E7B9F1080FD8BFAE
:101C40000B9900F10100D6BF02FB013302FB0737FD
:101C50000B9309F101091990BFE7199B5A1C1992BE
:101C60005A78B9F1000F3BD04D460A90A2F13003EB
:101C7000092B12D90123C2E7199B01305A1C199272
:101C80005A78302AF8D0A2F13103082B00F2C88428
:101C90000A9000200546199B0C93303A00F101038D
:101CA00018D02E464FF00A0E0A9919440A91711C59
:101CB000A1EB050C634515DC20EAE0702B18082B1E
:101CC00005F1010505441ADC0A230B9903FB0123E6
:101CD0000B930023199A1846511C19915278C5E7A5
:101CE0004846CEE7082E05DC0B9E0EFB06F60B964B
:101CF0000E46DCE71029D8BF0EFB07F7F8E70F2BDD
:101D0000DCBF0A2303FB0727E3E700230A93012331
:101D10007AE74FF0000CA21C1992A27882E74FF0EC
:101D2000010CF8E7DC4800080000F07F604700087D
:101D3000199A511C19915278302AF9D0A2F1310127
:101D400008293FF675AF4FF00A08303A0992199A00
:101D50000F92199A561C19965278A2F1300EBEF1C4
:101D6000090F39D90F9944F61F68761A082E03DC3B
:101D700009998845A8BF8846BCF1000F01D0C8F179
:101D80000008002D4ED1089908437FF4BEAE002B09
:101D90007FF4D4AE692A28D025DC492A25D04E2AE2
:101DA0007FF4CCAE994919A801F064F900283FF4FA
:101DB000C5AE199B1B78282B2ED195491CAA19A8B2
:101DC00001F06CF9052827D11D9BDDF870A043F0C8
:101DD000FF4B4BF4E00B98E6099908FB0121A1F1B8
:101DE00030020992B5E76E2ADAE78A4919A801F0AC
:101DF00041F900283FF4A2AE199B8749013B19A87D
:101E0000199301F037F910B9199B013319934FF069
:101E1000000ADFF808B278E6814800F053FE8246F7
:101E20008B4672E60A9BB9F1000F08BFA946A8EBE2
:101E30000303102D0B982C460993A8BF1024FEF71E
:101E4000E1FA092D82468B4611DC099B002B3FF4F9
:101E50005CAE099B76DD162B5DDC7249524601EBC8
:101E6000C3015B46D1E90001FEF746FBD7E76D4BA6
:101E700003EBC40353E91223FEF73EFB82463846C8
:101E80008B46FEF7BFFA02460B4650465946FEF710
:101E90007DF90F2D82468B46D7DD099B2C1B1C44F8
:101EA000002C40F3938014F00F030AD05D49524692
:101EB00001EBC301D1E900015B46FEF71DFB824641
:101EC0008B4634F00F0473D0B4F59A7F49DD0024BB
:101ED000A046A1460B9422234FF0000A059ADFF892
:101EE0003CB113600B9B002B3FF40FAE1A99059881
:101EF00001F070FA4946059801F06CFA41460598E0
:101F000001F068FA0B99059801F064FA21460598EA
:101F100001F060FAF9E5099AC5F125039342BCDBAB
:101F2000404CC5F10F0504EBC5015246D1E9000153
:101F30005B46FEF7E1FA099B5D1B04EBC504D4E99F
:101F4000002391E71633A8DB0A9B5046A3EB080851
:101F5000344B594603EBC808D8E90023FEF7F6FBDB
:101F60005DE70023504659461E462F4F2411012C91
:101F700021DC0BB182468B462B49ABF1547B01EB44
:101F8000C6015246D1E900015B46FEF7B5FA234B84
:101F90000A460B40254982468B4298D8A1F580110C
:101FA0008B4286BF4FF0FF3ADFF884B002F1547BDA
:101FB0000023089376E0E20704D5D7E90023FEF773
:101FC0009BFA0123013664100837D0E7F0D0644251
:101FD00014F00F020AD0134B504603EBC2035946CC
:101FE000D3E90023FEF7B2FB82468B462411DFD0F3
:101FF0001F2C1FDD0024A046A1460B942223059A26
:102000004FF0000A4FF0000B13606BE76B470008BE
:10201000C848000862470008654700080000F07FD4
:1020200092480008504A0008284A00080000A07C96
:10203000FFFFEF7F14F0100318BF6A235046089388
:1020400059460023774EE70704D5D6E90023FEF76B
:1020500053FA0123641006F10806F4D10BB182464D
:102060008B46089BB3B1CBF30A52C2F16B03002B32
:1020700059460FDD1F2B58DD342BD8BF4FF0FF33EF
:102080004FF0000ACFBF4FF05C7BC2F14B02934090
:1020900003EA010B0022002350465946FEF794FC48
:1020A0000028A7D10B9B4A4600930C992B46059814
:1020B00001F0F8F90B9000283FF409AF0024099AC9
:1020C0000A9B002AA3EB0803A8BF0023A046129393
:1020D00022EAE27316930B9B0598596801F03AF9CE
:1020E000814600283FF4F7AE0B9B0C301A6903F1D0
:1020F0000C010232920000F0D6FC1CAB01931BAB2A
:10210000009352465B460598CDE90CAB01F0F6FC16
:102110001A9000283FF4DFAE0121059801F058FA2B
:10212000804648B94FF00008D5E64FF0FF3202FA7A
:1021300003F303EA0A0AADE71B9D1C9A002DABBF0F
:10214000129B169BEF185E1B089BA8BF169EA5EB63
:1021500003051544344B05F1FF35B8BF129F9D426E
:10216000C2F1360250DA5B1B1F2B4FF00101A2EBCC
:1021700003023DDC01FA03F3139300231093BD180F
:10218000089BAF4216441E443B46A8BF2B46B342B1
:10219000A8BF3346002BC2BFED1AF61AFF1A129BD6
:1021A000002B16DD41461A46059801F0C9FA804613
:1021B0000028B7D001461A9A059801F01FFA0A9034
:1021C00000283FF488AE1A99059801F003F90A9B9C
:1021D0001A93002D1DDC099B002B27DD4946169A1A
:1021E000059801F0ADFA814600BB4FF0000972E698
:1021F000C5F17F4505F57F0505F57B45E23501FA1B
:1022000005F310931391BAE700231093012313935E
:10221000B5E72A461A99059801F0ECFA1A900028B9
:10222000D9D158E6F048000802FCFFFF002E07DD78
:1022300049463246059801F0DDFA81460028D4D09F
:10224000002F08DD41463A46059801F0D3FA804652
:1022500000283FF440AE4A461A99059801F052FB17
:10226000044600283FF437AEC36841460F9300236D
:10227000C36001F02BFB00283DDA0F9B53EA0A03F1
:1022800063D1CBF31303002B5FD12BF000431B0D65
:102290001B05B3F1D66F58D9636913B92369012BB4
:1022A00053DD21460122059801F0A4FA4146044677
:1022B00001F00CFB002848DD2BF00043089A1B0DB1
:1022C0001B05002A62D0B3F1D66F5FD8B3F15C7FF3
:1022D0007FF694AE50465946A34B0022FEF70CF908
:1022E000A24B82460B408B46002B7FF4FFAD22238E
:1022F000059A1360FAE5CDF828B065D10F9ACBF3B3
:1023000013035AB39A4A93422BD1089B514603B305
:102310005A46964B1340B3F1D46F4FF0FF321BD89F
:102320001B0DC3F16B0302FA03F3994219D1914BD0
:102330000A9A9A4202D101313FF4CDAD4FF0000A22
:102340008A4B0A9A1A4002F5801B089B002BC1D1C8
:10235000CCE54FF0FF33E8E71346E6E753EA0A031C
:10236000AAD0109BDBB10A9A1342EED00F9B5046C5
:102370005946089ABBB1FFF76BFB02460B46DDE9F5
:102380000C01FDF703FF82468B46DEE7A3F58013C1
:102390006FEA135B4FF0FF3A6FEA0B5BD5E7139BD5
:1023A00013EA0A0FE1E7FFF753FB02460B46DDE9AC
:1023B0000C01FDF7E9FE0022002382468B46FEF762
:1023C00003FB0028C1D019E64146204601F0EEFB90
:1023D00000224FF0804306460F46FEF709FB002817
:1023E0006DD00F9B002B78D1BAF1000F56D10A9B0C
:1023F000C3F31303002B58D10022304639465E4BFD
:10240000FEF7ECFA002857D13046394600225B4BE4
:10241000FEF772F806460F4607F10043069607934B
:10242000DDE90623514DCDE910230A9B1D40544B95
:102430009D4240F0AB800A9B5046A3F1547B594625
:1024400001F0F4FADDE90623FEF756F852465B4642
:10245000FDF79CFE0B4645494A4A19409142824687
:1024600042D90D9A434B9A4203D10C9B01333FF45E
:1024700032AD4FF0FF3ADFF8FCB01A99059800F042
:10248000A9FF4946059800F0A5FF4146059800F0D0
:10249000A1FF2146059800F09DFF1CE6BAF1010F4F
:1024A00003D10A9B002B3FF4A9AD0022364B002636
:1024B000CDE90623304FB3E70026304FACE7304676
:1024C00039462E4B0022FEF717F80F9B06460F46A3
:1024D000002BA1D0CDE90667A2E70022264B1646C5
:1024E0001F46CDE906239BE703F1547B089BCDF8FB
:1024F00028B0002BC1D12BF000431B0D1B059D42C2
:10250000BBD130463946FEF787FDFDF7C7FF0246CF
:102510000B4630463946FDF737FE0B460246CBF3F5
:102520001306CDE90C230F9B46EA0A061E436AD028
:1025300009A3D3E90023FEF751FA00287FF4D6ACB3
:1025400007A3D3E90023DDE90C01FEF765FA0028B3
:1025500093D0CBE4AFF300809535A094FFFFDF3F2D
:1025600035E5AF350000E03F000050390000F07F56
:10257000FFFF0F00FFFFEF7F0000F03F0000E03F94
:102580000000E07FFFFF9F7C0000F0BF089B23B3AB
:10259000B5F1D46F21D828A3D3E9002330463946BA
:1025A000FEF726FAA0B139463046FEF767FA012851
:1025B00038BF0120FDF726FF0F9B06460F46FBB9EB
:1025C00001F1004314901593DDE91423CDE91023A4
:1025D000119B03F1D6635B1B1193DDE90C01DDE96F
:1025E00010AB01F023FA02460B4650465946FDF760
:1025F00083FFDDE90C23FDF7C9FD82468B4675E7B5
:10260000CDE91467E0E70EA3D3E90023FEF7E6F96E
:102610009DE700230E93199B179A1360FFF779BA71
:10262000652A3FF472AB452A3FF46FAB0123FFF7F5
:10263000AABB00BFAFF300800000C0FFFFFFDF4177
:102640009535A094FFFFCF3F0A4601460248034B51
:102650000068FFF721BA00BF780100200C000020BD
:10266000242B2DE9F0478646904601D8012B06D150
:1026700000F0ECF9162303600020BDE8F0870D465A
:1026800033482A4615F8014B065D16F00806F8D1C6
:102690002D2C10D101262C78951C33F0100215D169
:1026A000302C0DD12A7802F0DF02582A08D16C783C
:1026B000023510230AE02B2C04BF2C78951CECE784
:1026C000002BF6D1302C14BF0A230823002206F178
:1026D000004C0CF1FF3CBCFBF3F9104603FB19CA9C
:1026E000A4F13007092F0FD83C46A3421BDD571C2D
:1026F00007D0814514D301D1A24511DB012200FB93
:10270000034015F8014BEBE7A4F14107192F01D85D
:10271000373CEAE7A4F16107192F04D8573CE4E7F6
:102720004FF0FF32EDE7531C08D122236046CEF86C
:102730000030B8F1000FA0D0691E06E006B140429B
:10274000B8F1000F99D0002AF6D1C8F8001094E72C
:102750001949000813460A46014602480068FFF777
:102760007FBF00BF78010020002310B50446C0E9F8
:102770000033C0E90433836081814366C281836191
:10278000194608225C3000F0F4F80D4B24626362B5
:102790000C4BA3620C4BE3620C4B23630C4B9C422F
:1027A00006D003F16802944202D0D0339C4205D196
:1027B00004F15800BDE8104000F072B910BD00BF30
:1027C000ED2800080F290008472900086B29000898
:1027D000EC020020024A0349034800F069B800BF38
:1027E00000000020B13D00087C01002041680C4B36
:1027F00010B59942044601D001F0DAFAA168094BFC
:10280000994202D0204601F0D3FAE168064B994282
:1028100004D02046BDE8104001F0CABA10BD00BF88
:10282000EC02002054030020BC03002010B50B4B29
:102830000B4C0C4A20461A6004210022FFF794FF3B
:1028400004F1680001220921FFF78EFF04F1D00096
:102850000222BDE810401221FFF786BF24040020A9
:10286000EC020020D5270008014800F01AB900BF8B
:102870002D040020014800F015B900BF2D040020F0
:1028800010B50446FFF7F0FF236A1BB1BDE8104006
:10289000FFF7F0BF044B2362044B1B68002BF5D1FC
:1028A000FFF7C4FFF2E700BFED2700082404002073
:1028B0002DE9F8430746884614460026D4E90195D9
:1028C000B9F1010905D52468002CF7D13046BDE8DF
:1028D000F883AB89012B07D9B5F90E30013303D04A
:1028E00029463846C04706436835E9E710B50C4627
:1028F000B1F90E1000F086F80028ABBF636DA38914
:102900001B1823F48053ACBF6365A38110BD2DE970
:10291000F0411F468B890546DB050C46164605D55A
:1029200002230022B1F90E1000F05AF8A3893246B2
:1029300023F48053A38128463B46B4F90E10BDE82A
:10294000F04100F071B810B50C46B1F90E1000F06E
:1029500047F8431CA38915BF606523F4805343F4F3
:102960008053A38118BFA38110BDB1F90E1000F0F0
:1029700027B803460244934200D1704703F8011B75
:10298000F9E70346C9B2184613F8012B12B18A427F
:10299000F9D17047002918BF0020704710B56AB1FF
:1029A0000139841810F8012B11F8013F9A4203D124
:1029B000A04201D0002AF5D1D01A10BD1046FCE784
:1029C00038B50023054D044608462B60FEF7A9FFE5
:1029D000431C02D12B6803B1236038BD28040020BA
:1029E00038B50446084611460022054D2A601A46AD
:1029F000FEF7BBFF431C02D12B6803B1236038BD37
:102A00002804002038B50446084611460022054D2A
:102A10002A601A46FEF74CFF431C02D12B6803B113
:102A2000236038BD2804002038B504460846114606
:102A30000022054D2A601A46FEF757FF431C02D1BB
:102A40002B6803B1236038BD28040020014B1868AF
:102A5000704700BF7801002070B500260C4D0D4C6A
:102A6000641BA410A64209D101F066FE00260A4D9F
:102A70000A4C641BA410A64205D170BD55F8043B56
:102A800098470136EEE755F8043B98470136F2E7E0
:102A9000204B0008204B0008204B0008244B000866
:102AA0007047704770470A44914200F1FF3300D1EC
:102AB000704710B511F8014B914203F8014FF9D15D
:102AC00010BD000000200149704700BF0000F87FE2
:102AD00038B50546002940D051F8043C0C1F002BA6
:102AE000B8BFE41800F02AFC1C4A136833B96360CD
:102AF00014602846BDE8384000F026BCA34208D93F
:102B0000206821188B4201BF19685B680918216091
:102B1000EDE71A465B680BB1A342FAD91168501869
:102B2000A0420BD120680144501883421160E0D1CB
:102B300018685B68084410605360DAE702D90C2318
:102B40002B60D6E7206821188B4201BF19685B68AB
:102B50000918216063605460CBE738BD340400205D
:102B600003692DE9F043B3EB611F00F114044FEA50
:102B7000611246DD11F01F0104EB830604EB8205B0
:102B80000CD1294600F11007B14235D39B1A9B00A6
:102B9000EA1E964238BF0023234415E0A14654F8AC
:102BA0002270C1F12008CF4005F1040E7645F446AD
:102BB00016D89A1A9200043A0135AE4238BF002264
:102BC000A318A75007B10433A342A3EB040208BF24
:102BD00000234FEAA202026108BF4361BDE8F0830F
:102BE000DCF800C00CFA08FC4CEA070749F8047B43
:102BF0005EF8047BCF40D9E751F804CB47F804CF07
:102C0000C2E72346E0E7A0F13003092B02D82038C1
:102C1000C0B27047A0F16103052B01D84738F7E730
:102C2000A0F14103052B01D82738F1E700207047B8
:102C30002DE9F04F8A46904685B002930B680190CB
:102C40009C1CA14614F8010B3028FAD0A9EB030311
:102C5000A3F1020BFFF7D7FF0546002868D1012238
:102C600048469F49FFF79AFE0746002867D199F822
:102C700001002646FFF7C7FF002862D023461878D8
:102C80009946302803F10103F9D0FFF7BCFFB0FAF1
:102C900080F54FF0010B6D094A4616463078013237
:102CA000FFF7B1FF0028F8D1012230468C49FFF729
:102CB00075FE00283FD144B9741C22461646307870
:102CC0000132FFF7A0FF0028F8D1A41BA70033783A
:102CD00003F0DF03502B3ED173782B2B33D02D2BF9
:102CE00034D00024711C0878FFF78DFF431EDBB23F
:102CF000182B30D8A0F1100211F8010FFFF783FF55
:102D000000F1FF3C5FFA8CFCBCF1180F4FF00A0396
:102D10001ED904B152421744CAF80010EDB1BBF1FC
:102D2000000F0CBF06250025284605B0BDE8F08F32
:102D300000252C46B0E7002CC7D12746C7E74E46F2
:102D40002F460125C3E70024B11CCCE70124FBE793
:102D500003FB0200CEE73146DEE72946A6EB090376
:102D6000013B072B0ADC019800F0F4FA044640B955
:102D70000246E4215B4B5C4801F052F801315B10E4
:102D8000EFE7002300F1140A55469B46B14537D3BF
:102D900045F804BBA5EB0A05AD102561584600F0C7
:102DA000CBFB6D01D8F800602D1AB54254DDAD1B88
:102DB0002946204600F04DFF814678B14FF00109C9
:102DC0006B1E59115AF8211003F01F0209FA02F282
:102DD0000A4203D04B4536DC4FF002092946204613
:102DE000FFF7BEFE2F44D8F80830BB4242DA214636
:102DF000019800F0EFFA00230E9AA325136093E7E1
:102E000016F8012D2E2A12D0202B04D145F804BB30
:102E10004FF0000B5B4630780393FFF7F4FE039B03
:102E200000F00F0098404BEA000B0433AEE7B145C9
:102E3000EAD8012230462A490393FFF7AFFD039BEE
:102E40000028E1D1A2E72046A91E00F002FF0028D9
:102E5000C2D04FF00309C1E709DA751B21462A46A3
:102E6000019800F0C7FC04467F1B00F1140A4FF0E4
:102E70000009B8E7D8F80450BD426FDDED1BAE4243
:102E800034DCD8F80C30022B22D0032B24D0012BB9
:102E900015D1AE4213D1012E0BD1D8F80430029ACD
:102EA0006225136001232361CAF800300E9B1C6069
:102EB0003AE72046711E00F0CCFE0028EDD12146F5
:102EC000019800F087FA00230E9A502513602BE733
:102ED0000F9B002BF3D1E0E70F9B002BDDD1EEE73A
:102EE0006047000876470008874700086F1EB9F161
:102EF000000F30D127B13946204600F0AAFE8146A6
:102F000001232946761B02257A115AF8222007F060
:102F10001F07BB401342204618BF49F00209FFF7C4
:102F20001FFED8F80470B9F1000F47D0D8F80C3064
:102F3000022B15D0032B17D0012B09D119F0020F4A
:102F400006D0DAF8003049EA030919F0010F0ED172
:102F500045F0100532E04FF00109D1E70125E2E725
:102F60000F9BC3F101030F930F9B002BF0D04FF089
:102F7000000CD4F810B004F114034FEA8B0A03EBF1
:102F80008B01184653F8042BB2F1FF3F1BD00132DE
:102F90000260022D04F114033CD1D8F80020013A5C
:102FA000B24209D10122711153F8213006F01F06F7
:102FB00002FA06F61E423AD145F020050E9B1C602F
:102FC000029B1F60B0E6994243F804CCD9D8A368AD
:102FD0009B4517DB61680198013100F0BBF9814620
:102FE00018B902468421194BC5E6226904F10C0187
:102FF000023292000C30FFF756FD2146019800F096
:10300000E9F94C4623695A1C2261012204EB83032F
:103010005A61BEE722695A450BDD01212046FFF7C0
:103020009FFDD8F808300137BB42FFF6E0AE01251E
:10303000C2E716F01F06FAD0534453F8040C00F010
:103040007BFAC6F12006B042E7DBF0E776470008DE
:10305000C2F10802920070B5C2F12006436804680C
:1030600003FA06F52C43D340046040F8043F88423D
:10307000F4D370BD30B50368013311F8014B14B9B6
:103080000360012030BD13F8012BA2F14105192D79
:1030900098BF2032A242F0D00020F3E72DE9F04F94
:1030A00000250B6882465E1102EB860613F01F03B3
:1030B00018BF0436371F9046B9463C46AB4687B02A
:1030C0000168019346F8045C02954A784B1C03930F
:1030D00042B3104605910492FFF795FD002851D1A7
:1030E000049A0599202A18D8029B9B4513DD4C456C
:1030F00006D2072D04DC2A4649462046FFF7A8FFE2
:10310000444552D90023A4F1040944F8043C1D4667
:103110004C46CDF808B00399D7E7292A57D1023198
:10312000CAF80010BBF1000F51D04C4506D2072D54
:1031300004DC2A4649462046FFF78AFF444536D933
:103140002346A8F1040253F8041B9F4242F8041FCF
:10315000F9D23B1B23F0030304330134033EB44292
:1031600088BF04230022434443F8042B9F42FBD230
:103170003B681BB9474528D101233B60052007B0B8
:10318000BDE8F08F0135082D0BF1010B06DD44453C
:10319000C1D90023012544F8043C043C226800F016
:1031A0000F0040EA02102060B5E70825B3E7019B55
:1031B000002BDDD04FF0FF32C3F12003DA4056F888
:1031C000043C134046F8043CD2E7043FD0E7042017
:1031D000D5E7000070B50F4E0C463168054611B9B1
:1031E00000F00EFE30602146284600F009FE431C28
:1031F00003D14FF0FF34204670BDC41C24F00304FB
:10320000A042F8D0211A284600F0FAFD0130F2D190
:10321000EFE700BF300400202DE9F843CD1C25F076
:10322000030508350C2D38BF0C25002D064601DBA3
:10323000A94204D90C2333600020BDE8F883DFF8ED
:10324000D48000F07BF8D8F800301C4644BB2946F7
:103250003046FFF7BFFF431C044658D1D8F8004062
:103260002746002F43D1002C4BD0236839463046E7
:1032700004EB030900F0C4FD814542D121683046CA
:103280006D1A2946FFF7A6FF01303AD023682B4478
:103290002360D8F800305A6862BBC8F800700FE0AD
:1032A0002268521B20D40B2A17D96119A34225602A
:1032B00018BF5960636808BFC8F8001062514B60BE
:1032C000304600F041F804F10B00231D20F0070008
:1032D000C21A1CBF1B1AA350AFE76268A3420CBFFF
:1032E000C8F800205A60EBE723466468AEE73C4626
:1032F0007F68B6E71A465B68A342FBD100235360A0
:10330000DEE70C233046336000F01EF894E70560DA
:10331000D6E700BF3404002082B001B901A942B150
:103320004BB113780B601278101E18BF012002B049
:1033300070471046FBE76FF00100F8E70148FFF720
:10334000B0BB00BF2C0400200148FFF7ABBB00BF9F
:103350002C04002070B5C66904460D4676B91020CD
:1033600000F090FD0246E06120B96B21174B184830
:1033700000F056FDC0E901660660C660E669F368C4
:1033800083B1E369DB6853F82500B8B9012101FA7C
:1033900005F6721D2046920000F060FD60B1C0E9A4
:1033A00001560EE021220421204600F057FDE3697A
:1033B000F060DB68002BE4D1002070BD026843F8A8
:1033C00025200023C0E90333F7E700BFE7470008E3
:1033D000FE47000870B5C66905460C4676B9102050
:1033E00000F050FD0246E86120B98F21084B0948E2
:1033F00000F016FDC0E901660660C6603CB1EB69ED
:103400006268DB6853F82210216043F8224070BDE7
:10341000E7470008FE4700082DE9F04107460C4643
:103420001E4600200D6901F1140CDCF8003001305B
:1034300099B202FB01611E0C0B0C02FB063389B230
:1034400001EB034185424FEA13464CF8041BECDCC8
:103450000EB3A368AB4219DC616838460131FFF74F
:1034600079FF804628B90246BA210C4B0C4800F07F
:10347000D7FC226904F10C01023292000C30FFF7F4
:1034800012FB21463846FFF7A5FF444604EB8503AF
:1034900001355E6125612046BDE8F0817647000870
:1034A000FE4700082DE9F843154609221F46083358
:1034B0000C4693FBF2F30646012200219A4209DBF7
:1034C0003046FFF747FF40B90246D321184B194851
:1034D00000F0A6FC52000131F0E7089B092D436182
:1034E0004FF00103036116DD04F10909C8462C44BD
:1034F00018F8013B01460A223046303BFFF78CFFAB
:10350000A045F5D1A5F108044C442D1B6319BB421D
:1035100004DBBDE8F88309250A34F6E714F8013B1B
:1035200001460A223046303BFFF776FFEEE700BF48
:1035300076470008FE4700080346B0F5803F3ABFD3
:10354000030410200020B3F1807F3CBF1B02083031
:10355000B3F1805F3CBF1B010430B3F1804F3CBF2F
:103560009B000230002B05DB13F0804F00F10100BF
:1035700008BF202070470368024613F007000BD0F5
:10358000D90721D4980749BF5B089B080120136025
:103590005CBF02201360704799B209B910201B0C60
:1035A000D9B209B908301B0A190704BF1B09043036
:1035B000990704BF9B080230D90703D45B0800F1C8
:1035C000010003D01360704700207047202070472F
:1035D00010B50C460121FFF7BDFE024628B940F2A6
:1035E0004511044B044800F01BFC012344610361B6
:1035F00010BD00BF76470008FE4700082DE9F04FD8
:1036000017460A693B6989469A42A2BF3B460F4664
:1036100099463D69D9F810A0BB68796805EB0A06A0
:10362000B34285B0B8BF0131FFF794FE30B902460E
:103630004FF4B171404B414800F0F2FB00F114042B
:103640002346002204EB860E734520D307F11408AD
:1036500009F1140108EB850501EB8A030293EB1BCA
:10366000153B23F0030304331537BD4238BF042351
:103670000193029B03918B420CD8002E03DD5EF870
:10368000043D002B55D0066105B0BDE8F08F43F82E
:10369000042BD9E7B1F800A0BAF1000F1FD0C4463F
:1036A000A14600275CF8042BD9F800301FFA82FBF2
:1036B0009BB20AFB0B333B44D9F80070120C3F0C51
:1036C0000AFB027202EB13429BB243EA02436545D6
:1036D0004FEA124749F8043BE4D8019BE750039BAB
:1036E0000431B3F80290B9F1000F20D04746A44648
:1036F0004FF0000A2368B7F800B0BCF802209BB274
:1037000009FB0B22524443EA02434CF8043B57F8AE
:10371000043B4FEA134ABCF80030BD4209FB0A33B0
:1037200003EB12434FEA134AE5D8019AA35004343D
:103730009FE7013EA1E700BF76470008FE4700086B
:103740002DE9F843154612F0030207460E4607D04E
:10375000254C013A002354F82220FFF75DFE06466F
:10376000AD103DD0FC697CB9102000F08BFB024607
:10377000F86128B940F2B3111C4B1D4800F050FB12
:10378000C0E901440460C460D7F81C80D8F8084040
:103790004CB940F271213846FFF71AFF0023044666
:1037A000C8F8080003604FF00009EB070AD531465E
:1037B00022463846FFF722FF804631463846FFF75B
:1037C00009FE46466D100BD0206838B922462146C6
:1037D0003846FFF713FF2060C0F800900446E4E786
:1037E0003046BDE8F88300BF1C4A0008E7470008E0
:1037F000FE4700082DE9F0470C460746914623692D
:10380000496803EB6218A3684FEA621A08F10106DF
:10381000B3420BDB3846FFF79DFD054648B902462B
:103820004FF4EF71274B284800F0FAFA01315B00A2
:10383000EEE7002300F1140100F110021846534591
:1038400033DB20692AEAEA7A04F1140319F01F092C
:1038500001EB8A0103EB800C2BD08A460022C9F1D0
:10386000200E186800FA09F010434AF8040B53F8C8
:10387000042B9C4522FA0EF2F3D8ACEB0403153B63
:1038800023F00303043304F11500604588BF0423CB
:10389000CA500AB108F10206013E384621462E619F
:1038A000FFF798FD2846BDE8F08742F8040F013382
:1038B000C5E7043953F8042B9C4541F8042FF9D887
:1038C000EAE700BF76470008FE47000803460A699A
:1038D000006930B5801A0ED11433143103EB820421
:1038E00001EB820154F8045D51F8042D954203D098
:1038F00005D24FF0FF3030BDA342F3D3FBE70120E8
:10390000F9E700002DE9F74F89460646114648467B
:103910001446FFF7DBFF051E12D129463046FFF79C
:1039200019FD024628B940F237213E4B3E4800F0CF
:1039300077FA0123C0E90435104603B0BDE8F08FE3
:10394000BCBF4B46A1463046D9F80410BABF1C464E
:1039500001250025FFF7FEFC024618B940F245217B
:10396000304BE3E700F1140BD9F8107009F11003A4
:10397000C5604FF0000C09F11405D946266904F121
:10398000140E05EB87080EEB86060193019B5EF88B
:10399000040B53F804AF81B201931FFA8AF35B1A48
:1039A000000C6344C0EB1A4000EB23409BB243EA97
:1039B000004376454FEA204C49F8043BE6D8331BD8
:1039C000153B23F0030315340433A64238BF042308
:1039D0001D445B441E462C4644450ED308F10301AA
:1039E000491B21F00301033DA84538BF00210B44CA
:1039F00053F8041D99B117619EE7E64654F8041B7D
:103A00001FFA81FCF444080C714400EB2C4089B28D
:103A100041EA00414FEA204C46F8041BDCE7013F35
:103A2000E6E700BF76470008FE4700080E4B0B4054
:103A3000A3F15073002B08DC5B42B3F1A07F4FEA87
:103A4000235204DA4FF400231341002208E0A2F1CC
:103A500014031E2BD6BF4FF000420122DA40002390
:103A600019461046704700BF0000F07F0269F8B5A4
:103A700000F1140606EB820252F8044C1E4F204659
:103A8000FFF75AFD0346C0F120000A2BA2F10405FE
:103A9000086012DCAE422CBF002252F8082CC3F1A1
:103AA0000B0C153324FA0CFE04FA03F322FA0CF281
:103AB0004EEA07011A431046F8BDAE4236BFA2F1E6
:103AC0000805002252F8082C0B3B12D0C3F1200746
:103AD00022FA07F19C400C43B54244F07F5194BF59
:103AE000002455F8044C9A40FC4041F44011224314
:103AF000E1E744EA0701DEE70000F03F2DE9734308
:103B0000012190469946089EFFF724FC044630B9EF
:103B1000024640F20F31234B234800F081F9C9F3EC
:103B20000A55C9F313030DB143F480130193B8F19F
:103B3000000324D068460093FFF71DFDDDE9001265
:103B4000D8B1C0F1200302FA03F30B43C240636112
:103B50000192019B002B0CBF01220222A361226172
:103B6000ADB1A5F2334505443560C0F13500099B80
:103B70001860204602B0BDE870836161E9E701A8E2
:103B8000FFF7F9FC019B012263612030E7E7A0F217
:103B9000324004EB820330601869FFF7CDFCC0EBC4
:103BA0004210E4E776470008FE4700082DE9F04F91
:103BB00085B0CDE9001002A9FFF758FF8B460646F5
:103BC0000F46009803A9FFF751FF0D46019B894658
:103BD0001969009B04461B693046C91ADDE90232A7
:103BE0009B1A03EB4113002BCDBF3A462A46C3EB89
:103BF000033302EB035BD8BF02EB03594B4622466B
:103C00005946FCF7A3FD05B0BDE8F08F013970B54A
:103C100049111469013102F1140300EB810103EB36
:103C20008404051FA3420CD3A31A113B23F0030302
:103C30001132A24288BF002318440023884205D3D2
:103C400070BD53F8046B45F8046FEBE740F8043B94
:103C5000F4E700F1140200694B11984210B511DB32
:103C60000ADD11F01F0107D052F8234024FA01F0B9
:103C700000FA01F18C420BD102EB8303934203D88B
:103C8000002010BD0346F7E753F8041D0029F5D0C6
:103C90000120F6E70346084641B1FF2A04D98A22EB
:103CA0004FF0FF301A60704701200A707047000023
:103CB000B1F90C20F8B5160705460C4654D44B68EC
:103CC000002B02DC0B6C002B48DDE66A002E45D091
:103CD000002312F480522F68216A2B6030D0626D6D
:103CE000A389590705D56368D21A636B0BB1236C9E
:103CF000D21A00232846E66A216AB047431CA389EA
:103D000006D129681D292BD8284ACA40D60727D5AD
:103D1000002262602269D904226004D5421C01D1CC
:103D20002B6803B96065616B2F60B9B104F144037E
:103D3000994202D02846FEF7CBFE002363630DE0D4
:103D400001232846B0470246501CC9D12B68002BDE
:103D5000C6D01D2B01D0162B1DD12F60002021E0D5
:103D600043F040031BB21AE00F69002FF6D093070F
:103D700018BF00230E6808BF4B69F61B0F608B60ED
:103D8000002EEBDD33463A462846216AD4F828C097
:103D9000E047002807DCB4F90C3043F040034FF053
:103DA000FF30A381F8BD0744361AE9E7010040203F
:103DB00038B50B6905460C4613B90025284638BDB1
:103DC00018B1036A0BB9FEF75BFDB4F90C30002B98
:103DD000F3D0626ED00704D4990502D4A06DFEF72B
:103DE00060FE28462146FFF763FF636E0546DA074B
:103DF000E4D4A3899B05E1D4A06DFEF753FEDDE773
:103E000038B50023054D044608462B60FDF7BAFD82
:103E1000431C02D12B6803B1236038BD2804002065
:103E20001FB514461A46094B05461B68D8684CB1A5
:103E3000074BCDE9013400912B46064900F02AF8E2
:103E400000F03AF8044B1C46F3E700BF780100206D
:103E500057480008644800089248000870B5A1FB64
:103E6000025434B92946FFF7D7F9064628B9304637
:103E700070BD0C2200260260F9E72A462146FEF7B3
:103E800078FDF4E7024B01461868FFF7C5B900BF9B
:103E9000780100200EB403B5014603AB054853F882
:103EA000042B0068019300F035F802B05DF804EBD4
:103EB00003B0704778010020062008B500F08EFBA3
:103EC0000120FDF7EAFC936810B4013B002B9360DE
:103ED00007DA9469A34201DB0A2902D110BC00F081
:103EE000C1BA1368581C10601970084610BC70479E
:103EF000F8B506460F461446D518AC4201D100204D
:103F000007E03A46304614F8011BFFF7DCFF431C7C
:103F1000F3D1F8BD2DE9F04F0D46144698460646FC
:103F20009DB018B1036A0BB9FEF7AAFC6B6ED907F6
:103F300005D4AB899A0502D4A86DFEF7B2FDAB8912
:103F40001B0701D52B699BB92946304600F0C8FAFA
:103F500070B16B6EDC0704D54FF0FF301DB0BDE8CB
:103F6000F08FAB899805F7D4A86DFEF79BFDF3E7BA
:103F70000023099320238DF8293030234FF00109C5
:103F8000CDF80C80DFF8A8818DF82A3023469A46B8
:103F900013F8012B0AB1252AF9D1BAEB040B0BD087
:103FA0005B46224629463046FFF7A2FF013000F06B
:103FB000A780099A5A4409929AF80030002B00F021
:103FC0009F8000234FF0FF32CDE905230AF1010A5B
:103FD000049307938DF853301A935446052214F82E
:103FE000011B534800F016FB049AD8B9D10644BF10
:103FF00020238DF85330130744BF2B238DF8533003
:104000009AF800302A2B15D0544600204FF00A0CA5
:10401000079A214611F8013B303B092B4BD9B0B12F
:10402000079214E0A0EB080309FA03F31343A24636
:104030000493D2E7039B191D1B680391002BBBBFA0
:104040005B4242F0020207930793B8BF04922378C1
:104050002E2B0AD163782A2B32D1039B02341A1DEE
:104060001B68039243EAE3730593DFF8C8A00322B9
:104070005046217800F0CEFA38B14022049BA0EBE4
:104080000A00824013430134049314F8011B0622F2
:1040900029488DF8281000F0BDFA00283FD0274BA2
:1040A0001BBB039B073323F0070308330393099BD0
:1040B0003B4409936AE70C4601200CFB0232A8E757
:1040C00000234FF00A0C194601340593204610F8DE
:1040D000012B303A092A03D9002BC6D00591C4E739
:1040E000044601230CFB0121F0E703AB00932A46B1
:1040F0003046134B04A9AFF300800746781CD6D195
:104100006B6ED90705D4AB899A0502D4A86DFEF76A
:10411000C9FCAB895B063FF51FAF09981EE703ABEF
:1041200000932A463046064B04A900F07DF8E4E7E8
:1041300093480008994800089D48000800000000C6
:10414000F13E00082DE9F047164698468A680B694B
:1041500007469342B8BF1346336091F843200C469C
:10416000DDF820900AB1013333602368990642BF1D
:10417000336802333360256815F0060506D104F173
:10418000190AE36832689B1AAB422BDC94F843307F
:104190002268003B18BF0123920630D441463846BE
:1041A00004F14302C847013023D02368226903F099
:1041B0000603042B14BF002533684FF0000608BF28
:1041C000E56804F11A0408BFED1A54F8123C08BF60
:1041D00025EAE5759342C4BF9B1AED18B5421AD182
:1041E000002008E00123524641463846C8470130C6
:1041F00003D14FF0FF30BDE8F0870135C1E7302033
:10420000E11881F843005A1C94F845102244023307
:1042100082F84310C2E70123224641463846C84788
:104220000130E6D00136D9E72DE9FF470F7E9146F0
:10423000782F80460C469A460C9E01F1430207D81F
:10424000622F0AD8002F00F0D180582F00F0B880DC
:1042500004F1420684F842703AE0A7F16303152B9B
:10426000F6D801A151F823F0C1420008D542000858
:1042700051420008514200085142000851420008D2
:10428000D54200085142000851420008514200083E
:1042900051420008D3430008FF4200088D43000844
:1042A0005142000851420008F543000851420008FD
:1042B000FF4200085142000851420008954300089F
:1042C00033681A1D1B68326004F1420684F84230DC
:1042D00001239CE033682068191D3160060601D572
:1042E0001D6803E04506FBD5B3F90050002D03DA45
:1042F0002D236D4284F843300A23584811E0216889
:104300003368080653F8045B02D4490648BFADB2CF
:104310006F2F336014BF0A2308235048002184F80C
:1043200043106668002EA66005DB21682E4321F04D
:10433000040121604BD01646B5FBF3F103FB115786
:10434000C75D06F8017D2F46BB420D46F4D9082B08
:104350000BD12368DF0708D5236961689942DEBF66
:10436000302306F8013C06F1FF36921B22614B46D2
:1043700021464046CDF800A003AAFFF7E3FE013036
:104380004AD14FF0FF3004B0BDE8F087236843F016
:10439000200323607827324884F845702368316809
:1043A0001F0651F8045B02D45F0648BFADB231600E
:1043B000D90744BF43F0200323601DB11023ADE7AC
:1043C0002648E9E7236823F020032360F6E7164632
:1043D000BDE733682568181D616930602E061B68CB
:1043E00001D5196002E06806FBD519800023164646
:1043F0002361BCE7336800211A1D32601E686268C1
:10440000304600F007F908B1801B606063682361E3
:10441000002384F84330AAE73246494640462369E0
:10442000D0470130ADD023689B0713D4E068039BCD
:104430009842B8BF1846A6E701233246494640468F
:10444000D04701309DD00135E36803995B1AAB4238
:10445000F2DCEBE7002504F11906F5E7A4480008B3
:10446000B5480008F8B50E461446054618B1036A6B
:104470000BB9FEF705FAA369A360A3891A0701D552
:10448000236943B92146284600F02AF818B14FF0B5
:10449000FF373846F8BD23682269F6B2981A636977
:1044A0003746834205DC21462846FFF781FC002879
:1044B000EDD1A368013BA36023685A1C22601E70E3
:1044C0006269431C9A4204D0A389DB07E1D50A2E16
:1044D000DFD121462846FFF76BFC0028D9D0D6E76C
:1044E00038B5294B054618680C4618B1036A0BB954
:1044F000FEF7C6F9B4F90C30190722D4DA0607D44E
:1045000009222A6043F040034FF0FF30A38133E0DB
:10451000580712D5616B41B104F14403994202D0AE
:104520002846FEF7D5FA00236363A38923F024030A
:10453000A3810023636023692360A38943F00803F8
:10454000A38123694BB9A38903F42073B3F5007FDA
:1045500003D02146284600F090F8B4F90C3013F04F
:1045600001020AD00022A26062695242A26122695D
:1045700042B913F08000C5D138BD990758BF6269B0
:10458000A260F4E70020F7E7780100201F2938B582
:1045900005460C4604D9162303604FF0FF3038BDA2
:1045A000C26B12B152F821304BB9284600F030F8F6
:1045B000224601462846BDE8384000F017B8012BD6
:1045C0000AD0591C03D1162303600120E7E700211C
:1045D000204642F8241098470020E0E7024B0146AD
:1045E0001868FFF7D3BF00BF7801002038B500235B
:1045F000064D0446084611462B60FDF73EF9431C64
:1046000002D12B6803B1236038BD00BF280400200D
:10461000FDF72CB9034610B5C9B2024493421846BF
:1046200001D1002003E0047801338C42F6D110BDA3
:1046300070B50C46B1F90E10154600291E4696B00D
:104640000CDAA389002113F0800F14BF40234FF42C
:104650008063002031602B6016B070BD6A4600F0A8
:1046600049F80028EDDB019901F47041A1F50053F0
:10467000594259414FF48063EBE78B89F7B59D07A9
:1046800006460C4607D504F1470323602361012346
:10469000636103B0F0BD6A4601ABFFF7C9FF009F3D
:1046A000054639463046FEF7B7FD48B9B4F90C3037
:1046B0009A05EED423F0030343F00203A381E2E75B
:1046C000A389C4E9040743F08003A381019B206010
:1046D0005BB13046B4F90E1000F01EF828B1A38982
:1046E00023F0030343F00103A381A3891D43A581A4
:1046F000CFE7000038B50023064D044608461146B2
:104700002B60FDF719F9431C02D12B6803B123601C
:1047100038BD00BF2804002038B50023054D0446ED
:1047200008462B60FDF717F9431C02D12B6803B133
:10473000236038BD28040020F8B500BFF8BC08BCD1
:104740009E467047F8B500BFF8BC08BC9E4670474F
:104750002447504747412C00244750524D432C00DA
:104760002E006E6600696E69747900616E00430008
:10477000504F5349580042616C6C6F6320737563EE
:10478000636565646564002F6275696C642F676E8C
:10479000752D746F6F6C732D666F722D73746D331E
:1047A000325F31332E332E72656C312E323032341B
:1047B000303932362D313731352F7372632F6E65B4
:1047C000776C69622F6E65776C69622F6C696263C2
:1047D0002F7374646C69622F6764746F612D6765F1
:1047E000746865782E63005245454E54206D616CA7
:1047F0006C6F6320737563636565646564002F6225
:1048000075696C642F676E752D746F6F6C732D6690
:104810006F722D73746D33325F31332E332E7265A8
:104820006C312E32303234303932362D3137313529
:104830002F7372632F6E65776C69622F6E65776C6C
:1048400069622F6C6962632F7374646C69622F6D87
:10485000707265632E63002C2066756E6374696FD9
:104860006E3A2000617373657274696F6E20222541
:104870007322206661696C65643A2066696C652004
:10488000222573222C206C696E65202564257325F2
:10489000730A00232D302B2000686C4C006566677E
:1048A00045464700303132333435363738394142A6
:1048B0004344454600303132333435363738396178
:1048C000626364656600000034000000CEFBFFFFF9
:1048D000CB030000010000000000000035000000D4
:1048E000CEFBFFFFCB030000010000000000000032
:1048F000BC89D897B2D29C3C33A7A8D523F64939B6
:104900003DA7F444FD0FA5329D978CCF08BA5B25D7
:10491000436FAC642806681100202020202020204E
:10492000202028282828282020202020202020205F
:10493000202020202020202020881010101010106F
:1049400010101010101010101004040404040404BB
:104950000404041010101010101041414141414155
:104960000101010101010101010101010101010137
:104970000101010110101010101042424242424247
:104980000202020202020202020202020202020207
:1049900002020202101010102000000000000000AF
:1049A0000000000000000000000000000000000007
:1049B00000000000000000000000000000000000F7
:1049C00000000000000000000000000000000000E7
:1049D00000000000000000000000000000000000D7
:1049E00000000000000000000000000000000000C7
:1049F00000000000000000000000000000000000B7
:104A000000000000000000000000000000000000A6
:104A10000000000000000000000000000500000091
:104A2000190000007D0000000080E03779C3414399
:104A3000176E05B5B5B89346F5F93FE9034F384D04
:104A4000321D30F94877825A3CBF737FDD4F1575B0
:104A5000000000000000F03F0000000000002440C3
:104A600000000000000059400000000000408F409E
:104A7000000000000088C34000000000006AF84009
:104A80000000000080842E4100000000D01263412D
:104A90000000000084D797410000000065CDCD41A3
:104AA000000000205FA00242000000E87648374284
:104AB000000000A2941A6D42000040E59C30A24222
:104AC0000000901EC4BCD64200003426F56B0C4397
:104AD0000080E03779C3414300A0D885573476433E
:104AE00000C84E676DC1AB43003D9160E458E1439F
:104AF000408CB5781DAF154450EFE2D6E41A4B4414
:104B000092D54D06CFF08044F64AE1C7022DB54458
:084B1000B49DD9794378EA4411
:084B180058B6FF7F0100000008
:044B20005501000833
:044B24003101000853
:104B28000000000003000000EC0200204300000029
:104B3800000000000000000000000000000000006D
:104B4800000000000000000000000000430000001A
:104B5800000000000000000000000000000000004D
:104B680000000000000000000000000043000000FA
:104B7800000000000000000000000000000000002D
:104B880000000000000000000000000043000000DA
:104B9800000000000000000000000000000000000D
:104BA80000000000000000000000000043000000BA
:104BB80000000000000000000000000000000000ED
:104BC800000000000000000000000000430000009A
:104BD80000000000000000000000000000000000CD
:104BE800000000000000000000000000430000007A
:104BF80000000000000000000000000000000000AD
:104C0800000000000000000000000000953C0008C3
:104C18001933000800000000184900086047000820
:104C280092480008924800089248000892480008F4
:104C380092480008924800089248000892480008E4
:104C480092480008FFFFFFFFFFFFFFFFFFFFFFFF86
:104C5800FFFF0000010041534349490000000000E4
:104C6800000000000000000000000000000000003C
:104C780000000000000041534349490000000000C3
:104C8800000000000000000000000000000000001C
:104C980000000000000000007C010020000000006F
:104CA800EC02002054030020BC0300200000000098
:104CB80000000000000000000000000000000000EC
:104CC80000000000000000000000000000000000DC
:104CD80000000000000000000000000000000000CC
:084CE8000000000000000000C4
:04000005080019F1E5
:00000001FF
