:020000040800F2
:1000000000500020E10E0008310F0008310F0008F9
:10001000310F0008310F0008310F00080000000008
:10002000000000000000000000000000310F000888
:10003000310F000800000000310F0008310F0008E8
:10004000310F0008310F0008310F0008310F000890
:10005000310F0008310F0008310F0008310F000880
:10006000310F0008310F0008310F0008310F000870
:10007000310F0008310F0008310F0008310F000860
:10008000310F0008310F0008310F0008310F000850
:10009000310F0008310F0008310F0008310F000840
:1000A000310F0008310F0008310F0008310F000830
:1000B000310F0008310F0008310F0008310F000820
:1000C000310F0008310F0008310F0008310F000810
:1000D000310F0008310F0008310F0008310F000800
:1000E000310F0008310F000800000000310F000838
:1000F000310F0008310F0008310F0008310F0008E0
:10010000310F0008310F0008310F0008310F0008CF
:10011000310F0008310F0008310F0008310F0008BF
:10012000310F0008310F0008310F0008310F0008AF
:1001300010B5054C237833B9044B13B10448AFF321
:1001400000800123237010BD50000020000000003B
:100150008418000808B5034B1BB103490348AFF3EB
:10016000008008BD00000000540000208418000832
:1001700081F0004102E000BF83F0004330B54FEA58
:1001800041044FEA430594EA050F08BF90EA020FC5
:100190001FBF54EA000C55EA020C7FEA645C7FEA58
:1001A000655C00F0E2804FEA5454D4EB5555B8BF7B
:1001B0006D420CDD2C4480EA020281EA030382EAEC
:1001C000000083EA010180EA020281EA0303362D7E
:1001D00088BF30BD11F0004F4FEA01314FF4801C51
:1001E0004CEA113102D0404261EB410113F0004F63
:1001F0004FEA03334CEA133302D0524263EB43031A
:1002000094EA050F00F0A780A4F10104D5F1200EB7
:100210000DDB02FA0EFC22FA05F2801841F1000112
:1002200003FA0EF2801843FA05F359410EE0A5F1E6
:1002300020050EF1200E012A03FA0EFC28BF4CF017
:10024000020C43FA05F3C01851EBE37101F00045CD
:1002500007D54FF0000EDCF1000C7EEB00006EEBDA
:100260000101B1F5801F1BD3B1F5001F0CD3490864
:100270005FEA30004FEA3C0C04F101044FEA4452BB
:1002800012F5800F80F09A80BCF1004F08BF5FEA42
:10029000500C50F1000041EB045141EA050130BD22
:1002A0005FEA4C0C404141EB0101013C28BFB1F534
:1002B000801FE9D291F0000F04BF01460020B1FA7F
:1002C00081F308BF2033A3F10B03B3F120020CDA52
:1002D0000C3208DD02F1140CC2F10C0201FA0CF030
:1002E00021FA02F10CE002F11402D8BFC2F1200C95
:1002F00001FA02F120FA0CFCDCBF41EA0C0190404B
:10030000E41AA2BF01EB0451294330BD6FEA040493
:100310001F3C1CDA0C340EDC04F11404C4F120027E
:1003200020FA04F001FA02F340EA030021FA04F390
:1003300045EA030130BDC4F10C04C4F1200220FAE7
:1003400002F001FA04F340EA0300294630BD21FA25
:1003500004F0294630BD94F0000F83F4801306BFEB
:1003600081F480110134013D4EE77FEA645C18BFDF
:100370007FEA655C29D094EA050F08BF90EA020F76
:1003800005D054EA000C04BF1946104630BD91EA6E
:10039000030F1EBF0021002030BD5FEA545C05D171
:1003A0004000494128BF41F0004130BD14F58004B0
:1003B0003CBF01F5801130BD01F0004545F0FE4124
:1003C00041F470014FF0000030BD7FEA645C1ABF59
:1003D000194610467FEA655C1CBF0B46024650EA90
:1003E000013406BF52EA033591EA030F41F40021BC
:1003F00030BD00BF90F0000F04BF0021704730B542
:100400004FF4806404F132044FF000054FF0000116
:1004100050E700BF90F0000F04BF0021704730B5D7
:100420004FF4806404F1320410F0004548BF4042AC
:100430004FF000013EE700BF42004FEAE2014FEA01
:1004400031014FEA02701FBF12F07F4393F07F4FDC
:1004500081F06051704732F07F4208BF704793F0DF
:100460007F4F04BF41F40021704730B54FF46074F2
:1004700001F0004521F000411CE700BF50EA0102F5
:1004800008BF704730B54FF000050AE050EA01029E
:1004900008BF704730B511F0004502D5404261EB0E
:1004A00041014FF4806404F132045FEA915C3FF44F
:1004B000D8AE4FF003025FEADC0C18BF03325FEAEC
:1004C000DC0C18BF033202EBDC02C2F1200300FA9D
:1004D00003FC20FA02F001FA03FE40EA0E0021FAC2
:1004E00002F11444BDE600BF80F0004002E000BF0E
:1004F00081F0004142001FBF5FEA410392EA030F0F
:100500007FEA226C7FEA236C6AD04FEA1262D2EB58
:100510001363C1BFD218414048404140B8BF5B425D
:10052000192B88BF704710F0004F40F4000020F0F6
:100530007F4018BF404211F0004F41F4000121F00C
:100540007F4118BF494292EA030F3FD0A2F1010256
:1005500041FA03FC10EB0C00C3F1200301FA03F194
:1005600000F0004302D5494260EB4000B0F5000FB7
:1005700013D3B0F1807F06D340084FEA310102F176
:100580000102FE2A51D2B1F1004F40EBC25008BF28
:1005900020F0010040EA03007047490040EB0000F2
:1005A000013A28BFB0F5000FEDD2B0FA80FCACF1F3
:1005B000080CB2EB0C0200FA0CF0AABF00EBC25020
:1005C00052421843BCBFD0401843704792F0000F0E
:1005D00081F4000106BF80F400000132013BB5E761
:1005E0004FEA41037FEA226C18BF7FEA236C21D0D7
:1005F00092EA030F04D092F0000F08BF084670473C
:1006000090EA010F1CBF0020704712F07F4F04D109
:10061000400028BF40F00040704712F100723CBF1C
:1006200000F50000704700F0004343F0FE4040F446
:10063000000070477FEA226216BF08467FEA236304
:100640000146420206BF5FEA412390EA010F40F4EF
:10065000800070474FF0000304E000BF10F000433B
:1006600048BF40425FEA000C08BF704743F0964322
:1006700001464FF000001CE050EA010208BF70473D
:100680004FF000030AE000BF50EA010208BF7047C4
:1006900011F0004302D5404261EB41015FEA010CD9
:1006A00002BF84460146002043F0B64308BFA3F1D1
:1006B0008053A3F50003BCFA8CF2083AA3EBC253B3
:1006C00010DB01FA02FC634400FA02FCC2F12002D2
:1006D000BCF1004F20FA02F243EB020008BF20F009
:1006E0000100704702F1200201FA02FCC2F120026F
:1006F00050EA4C0021FA02F243EB020008BF20EA64
:10070000DC7070474FF0FF0C1CEAD0521EBF1CEA91
:10071000D15392EA0C0F93EA0C0F6FD01A4480EA7F
:10072000010C400218BF5FEA41211ED04FF0006368
:1007300043EA501043EA5111A0FB01310CF0004094
:10074000B1F5000F3EBF490041EAD3715B0040EABA
:10075000010062F17F02FD2A1DD8B3F1004F40EB8A
:10076000C25008BF20F00100704790F0000F0CF05D
:10077000004C08BF49024CEA502040EA51207F3A21
:10078000C2BFD2F1FF0340EAC250704740F40000FC
:100790004FF00003013A5DDC12F1190FDCBF00F0ED
:1007A00000407047C2F10002410021FA02F1C2F19B
:1007B000200200FA02FC5FEA310040F1000053EA37
:1007C0004C0308BF20EADC70704792F0000F00F085
:1007D000004C02BF400010F4000F013AF9D040EA8B
:1007E0000C0093F0000F01F0004C02BF490011F41F
:1007F000000F013BF9D041EA0C018FE70CEAD1531D
:1008000092EA0C0F18BF93EA0C0F0AD030F0004C9C
:1008100018BF31F0004CD8D180EA010000F0004050
:10082000704790F0000F17BF90F0004F084691F00E
:10083000000F91F0004F14D092EA0C0F01D1420248
:100840000FD193EA0C0F03D14B0218BF084608D111
:1008500080EA010000F0004040F0FE4040F400005B
:10086000704740F0FE4040F4400070474FF0FF0CEE
:100870001CEAD0521EBF1CEAD15392EA0C0F93EA35
:100880000C0F69D0A2EB030280EA010C49024FEA87
:10089000402037D04FF0805343EA111143EA101340
:1008A0000CF000408B4238BF5B0042F17D024FF4F8
:1008B000000C8B4224BF5B1A40EA0C00B3EB510FD3
:1008C00024BFA3EB510340EA5C00B3EB910F24BFBC
:1008D000A3EB910340EA9C00B3EBD10F24BFA3EB41
:1008E000D10340EADC001B0118BF5FEA1C1CE0D109
:1008F000FD2A3FF650AF8B4240EBC25008BF20F0BC
:10090000010070470CF0004C4CEA50207F32C2BF0F
:10091000D2F1FF0340EAC250704740F400004FF0AC
:100920000003013A37E792F0000F00F0004C02BFDD
:10093000400010F4000F013AF9D040EA0C0093F0A7
:10094000000F01F0004C02BF490011F4000F013B01
:10095000F9D041EA0C0195E70CEAD15392EA0C0F69
:1009600008D142027FF47DAF93EA0C0F7FF470AFA1
:10097000084676E793EA0C0F04D14B023FF44CAFE4
:1009800008466EE730F0004C18BF31F0004CCAD179
:1009900030F000427FF45CAF31F000437FF43CAFB5
:1009A0005FE700BF80B400AF034B10221A6000BFA6
:1009B000BD4680BC704700BF1408014080B400AF42
:1009C000034B10221A6000BFBD4680BC704700BFB9
:1009D0001008014080B400AF034B01221A6000BF31
:1009E000BD4680BC704700BF140C014080B400AF0E
:1009F000034B01221A6000BFBD4680BC704700BF98
:100A0000100C014080B400AF064B1B6803F00203DA
:100A1000002B14BF01230023DBB21846BD4680BC67
:100A2000704700BF0808014080B400AF034B4FF48B
:100A300000521A6000BFBD4680BC704714100140D0
:100A400080B400AF034B4FF400521A6000BFBD46A4
:100A500080BC70471010014080B483B000AF786054
:100A600000E000BF7B685A1E7A60002BF9D100BFFE
:100A700000BF0C37BD4680BC7047000080B500AF9A
:100A8000354B1B68344A43F4805343F01C03136016
:100A9000324B1B68314A23F4702313602F4B1B68C1
:100AA0002E4A43F4403313602C4B1B682B4A23F42B
:100AB00070031360294B1B68284A43F4300313600A
:100AC000264B1B68254A23F070631360234B1B6879
:100AD000224A43F080631360204B1B681F4A23F0B7
:100AE000704313601D4B1B681C4A43F03043136076
:100AF0001A4B1B68194A23F0F0031360174B1B684D
:100B0000164A43F040031360154B1B68144A23F048
:100B10000F031360124B1B68114A43F00303136069
:100B2000104B1B680F4A23F4700313600D4B1B68B6
:100B30000C4A43F400131360FFF740FFFFF756FF22
:100B4000094B14221A60084B1B68074A43F0400304
:100B5000136000BF80BD00BF1810024000080140B4
:100B6000000C0140041001400030014080B483B00B
:100B700000AF0346FB7100BF0B4B1B6803F0020381
:100B8000002BF9D0094AFB79136000BF064B1B68A4
:100B900003F00103002BF9D0044B1B68DBB21846AD
:100BA0000C37BD4680BC7047083001400C30014016
:100BB00080B582B000AF03460A46FB711346BB7195
:100BC000FFF7F0FEFB7963F07F03DBB21846FFF717
:100BD000CDFFBB791846FFF7C9FFFFF7EFFE00BF57
:100BE0000837BD4680BD80B584B000AF0346FB71B9
:100BF000FFF7D8FEFB7903F07F03DBB21846FFF75F
:100C0000B5FF0020FFF7B2FF0346FB73FFF7D6FEE8
:100C1000FB7B18461037BD4680BD80B500AFFFF79F
:100C2000D9FE44F62060FFF717FFFFF7DFFE44F61A
:100C30002060FFF711FF80210120FFF7B9FF42F28A
:100C40001070FFF709FF81210120FFF7B1FF6C2130
:100C50000620FFF7ADFF80210720FFF7A9FF002145
:100C60000820FFF7A5FF8F210920FFF7A1FF23210F
:100C70000C20FFF79DFF00210F20FFF799FF722145
:100C80001D20FFF795FF74211E20FFF791FF002123
:100C90004020FFF78DFFFF211220FFF789FF8521FC
:100CA0000120FFF785FF00BF80BD000080B400AFCA
:100CB0000F4B1B680E4A43F4804343F00403136058
:100CC0000C4B1B680B4A23F0F0031360094B1B68A5
:100CD000084A43F0B0031360074B40F241321A60F8
:100CE000064B42F208021A6000BFBD4680BC704746
:100CF0001810024004080140083801400C38014037
:100D000080B483B000AF0346FB7100BF064B1B6885
:100D100003F08003002BF9D0044AFB79136000BF75
:100D20000C37BD4680BC7047003801400438014094
:100D300080B582B000AF786006E07B685A1C7A60AC
:100D40001B781846FFF7DCFF7B681B78002BF4D17B
:100D500000BF00BF0837BD4680BD000080B588B029
:100D600000AF78607868FFF779FC03460C491846B5
:100D7000FFF77CFD0346FB61F869FFF75DFB024668
:100D80000B4607F10C00074900F0D4F807F10C03FB
:100D90001846FFF7CDFF00BF2037BD4680BD00BF1E
:100DA0008096184B9C18000890B587B000AFFFF7ED
:100DB00065FEFFF77BFFFFF719FEFFF72EFFFFF73A
:100DC0003FFEFFF71FFE0346002B48D00F20FFF722
:100DD0000AFF034619460D20FFF7EAFE0023FB75C4
:100DE0000DE0FC7D0020FFF7FEFE03461A4604F1ED
:100DF00018033B4403F8142CFB7D0133FB75FB7D8A
:100E0000072BEED93B791A067B791B041A43BB7971
:100E10001B021343FA7913433B613B7A1A067B7A30
:100E20001B041A43BB7A1B021343FA7A1343FB6079
:100E3000FFF7FAFD0C48FFF77BFF3869FFF78EFFDD
:100E40000A48FFF775FFF868FFF788FF0848FFF7C3
:100E50006FFFFFF7F5FDFF211220FFF7A9FE4CF20F
:100E60005030FFF7F9FDACE7A4180008AC180008F3
:100E7000B418000880B586B000AF7860144A154BEE
:100E8000D31A7B617B693B61134B1B68002B02D13A
:100E9000114B124A1A60104B1A687B6813443A6966
:100EA0009A4207D200F068F803460C221A604FF00D
:100EB000FF3309E0084B1B68FB60074B1A687B682F
:100EC0001344054A1360FB6818461837BD4680BDB9
:100ED00000500020000400006C000020B801002039
:100EE0000D488546AFF300800C480D490D4A00239C
:100EF00002E0D458C4500433C4188C42F9D30A4ACF
:100F00000A4C002301E013600432A242FBD300F03C
:100F100039F8FFF749FFFEE70050002000000020ED
:100F200050000020F418000850000020B8010020F4
:100F3000FEE700000EB46FF0004110B500249DB034
:100F40001FAB02900690079104910948094953F894
:100F5000042B0591006802A901931B9400F08AF903
:100F6000029B1C701DB0BDE8104003B0704700BF6D
:100F7000000000200802FFFF014B1868704700BF07
:100F80000000002070B500260C4D0D4C641BA41011
:100F9000A64209D100F076FC00260A4D0A4C641BDB
:100FA000A410A64205D170BD55F8043B9847013600
:100FB000EEE755F8043B98470136F2E7EC180008D5
:100FC000EC180008EC180008F0180008704770478B
:100FD00038B50546002940D051F8043C0C1F002BC1
:100FE000B8BFE41800F0DEF81C4A136833B9636038
:100FF00014602846BDE8384000F0DAB8A34208D9AA
:10100000206821188B4201BF19685B6809182160AC
:10101000EDE71A465B680BB1A342FAD91168501884
:10102000A0420BD120680144501883421160E0D1E6
:1010300018685B68084410605360DAE702D90C2333
:101040002B60D6E7206821188B4201BF19685B68C6
:101050000918216063605460CBE738BDB4010020FB
:1010600070B50F4E0C463168054611B900F0A8FB6B
:1010700030602146284600F0A3FB431C03D14FF00B
:10108000FF34204670BDC41C24F00304A042F8D0F5
:10109000211A284600F094FB0130F2D1EFE700BF9F
:1010A000B00100202DE9F843CD1C25F003050835DB
:1010B0000C2D38BF0C25002D064601DBA94204D9B2
:1010C0000C2333600020BDE8F883DFF8D48000F003
:1010D00069F8D8F800301C4644BB29463046FFF773
:1010E000BFFF431C044658D1D8F800402746002FC4
:1010F00043D1002C4BD023683946304604EB03091A
:1011000000F05EFB814542D1216830466D1A2946C8
:10111000FFF7A6FF01303AD023682B442360D8F8AC
:1011200000305A6862BBC8F800700FE02268521B9A
:1011300020D40B2A17D96119A342256018BF596022
:10114000636808BFC8F8001062514B60304600F079
:101150002FF804F10B00231D20F00700C21A1CBF5A
:101160001B1AA350AFE76268A3420CBFC8F8002067
:101170005A60EBE723466468AEE73C467F68B6E713
:101180001A465B68A342FBD100235360DEE70C23C1
:101190003046336000F00CF894E70560D6E700BFF6
:1011A000B40100200148FFF711BF00BFAC010020CF
:1011B0000148FFF70CBF00BFAC0100202DE9F0474C
:1011C0001F468E688246BE420C4690460B682DD85C
:1011D000B1F90C2012F4906F26D06569096905EB0E
:1011E0004505A3EB010905EBD5757B1C4B446D1040
:1011F0009D4238BF1D46530527D52946FFF752FFAC
:10120000064660B34A46216900F0F8FAA38923F440
:10121000906343F08003A38126614E4426603E46DE
:101220006561A5EB0905A560BE4200D93E46324680
:101230004146206800F0AAFA0020A3689B1BA36027
:10124000236833442360BDE8F0872A4600F0E4FABF
:1012500006460028E0D150462169FFF7B9FE0C236D
:10126000CAF80030A3894FF0FF3043F04003A38158
:10127000E9E700002DE9F04F98468B8907461B06E9
:101280000D4614469DB010D50B6973B94021FFF788
:1012900009FF2860286130B90C233B604FF0FF3014
:1012A0001DB0BDE8F08F40236B610023099320231C
:1012B0008DF8293030234FF00109CDF80C80DFF88C
:1012C00098818DF82A3023469A4613F8012B0AB1EB
:1012D000252AF9D1BAEB040B0BD05B4622462946EE
:1012E0003846FFF76BFF013000F0A780099A5A4497
:1012F00009929AF80030002B00F09F8000234FF0F5
:10130000FF32CDE905230AF1010A049307938DF812
:1013100053301A935446052214F8011B4E4800F02E
:101320005FFA049AD8B9D00644BF20238DF8533011
:10133000110744BF2B238DF853309AF800302A2B25
:1013400015D0544600204FF00A0C079A214611F898
:10135000013B303B092B4BD9B0B1079214E0A0EB15
:10136000080309FA03F31343A2460493D2E7039B4D
:10137000191D1B680391002BBBBF5B4242F00202A8
:1013800007930793B8BF049223782E2B0AD1637872
:101390002A2B32D1039B02341A1D1B68039243EAA5
:1013A000E3730593DFF8B4A003225046217800F0E0
:1013B00017FA38B14022049BA0EB0A008240134385
:1013C0000134049314F8011B062225488DF82810D7
:1013D00000F006FA002836D0224B1BBB039B0733D4
:1013E00023F0070308330393099B334409936AE707
:1013F0000C4601200CFB0232A8E700234FF00A0C38
:10140000194601340593204610F8012B303A092A79
:1014100003D9002BC6D00591C4E7044601230CFB79
:101420000121F0E703AB00932A4638460E4B04A98E
:10143000AFF30080421C0646D6D1AB895B063FF570
:101440002DAF09982CE703AB00932A463846064B8C
:1014500004A900F07DF8EDE7B7180008BD180008F2
:10146000C118000800000000BD1100082DE9F04778
:10147000164698468A680B6907469342B8BF1346DA
:10148000336091F843200C46DDF820900AB1013317
:1014900033602368990642BF33680233336025689E
:1014A00015F0060506D104F1190AE36832689B1AA3
:1014B000AB422BDC94F843302268003B18BF012379
:1014C000920630D44146384604F14302C847013001
:1014D00023D02368226903F00603042B14BF0025E0
:1014E00033684FF0000608BFE56804F11A0408BF2E
:1014F000ED1A54F8123C08BF25EAE5759342C4BFC3
:101500009B1AED18B5421AD1002008E0012352467B
:1015100041463846C847013003D14FF0FF30BDE89F
:10152000F0870135C1E73020E11881F843005A1CEB
:1015300094F845102244023382F84310C2E7012395
:10154000224641463846C8470130E6D00136D9E741
:101550002DE9FF470F7E9146782F80460C469A462C
:101560000C9E01F1430207D8622F0AD8002F00F029
:10157000D180582F00F0B88004F1420684F8427000
:101580003AE0A7F16303152BF6D801A151F823F037
:10159000E9150008FD1500087915000879150008FF
:1015A0007915000879150008FD150008791500085F
:1015B000791500087915000879150008FB16000850
:1015C00027160008B51600087915000879150008D7
:1015D0001D1700087915000827160008791500085E
:1015E00079150008BD16000833681A1D1B683260A3
:1015F00004F1420684F8423001239CE033682068FD
:10160000191D3160060601D51D6803E04506FBD5AE
:10161000B3F90050002D03DA2D236D4284F84330D6
:101620000A23584811E021683368080653F8045B20
:1016300002D4490648BFADB26F2F336014BF0A23EE
:1016400008235048002184F843106668002EA660E5
:1016500005DB21682E4321F0040121604BD01646A2
:10166000B5FBF3F103FB1157C75D06F8017D2F466B
:10167000BB420D46F4D9082B0BD12368DF0708D5F0
:10168000236961689942DEBF302306F8013C06F108
:10169000FF36921B22614B4621464046CDF800A002
:1016A00003AAFFF7E3FE01304AD14FF0FF3004B048
:1016B000BDE8F087236843F0200323607827324891
:1016C00084F84570236831681F0651F8045B02D422
:1016D0005F0648BFADB23160D90744BF43F0200375
:1016E00023601DB11023ADE72648E9E7236823F006
:1016F00020032360F6E71646BDE733682568181D0A
:10170000616930602E061B6801D5196002E0680629
:10171000FBD51980002316462361BCE733680021FE
:101720001A1D32601E686268304600F059F808B130
:10173000801B606063682361002384F84330AAE75C
:101740003246494640462369D0470130ADD0236830
:101750009B0713D4E068039B9842B8BF1846A6E7DE
:101760000123324649464046D04701309DD00135DD
:10177000E36803995B1AAB42F2DCEBE7002504F166
:101780001906F5E7C8180008D9180008884210B5EE
:1017900001EB020402D98442234607D8431EA1422A
:1017A00008D011F8012B03F8012FF8E70146024495
:1017B0008A4200D110BD13F8014D02F8014DF7E740
:1017C00038B50023054D044608462B60FFF752FB51
:1017D000431C02D12B6803B1236038BDA80100204F
:1017E000034610B5C9B202449342184601D1002005
:1017F00003E0047801338C42F6D110BD0A449142D3
:1018000000F1FF3300D1704710B511F8014B914240
:1018100003F8014FF9D110BD2DE9F04107461446F8
:101820000D4621B91146BDE8F041FFF73BBC2AB98E
:10183000FFF7CEFB25462846BDE8F08100F01AF8F8
:101840008442064602D8B4EB500FF4D821463846FD
:10185000FFF728FC804608B94546ECE7B44222462B
:10186000294628BF3246FFF7C9FF29463846FFF709
:10187000AFFBF1E751F8043C181F002BBCBF0B581D
:10188000C0187047F8B500BFF8BC08BC9E4670474A
:0C189000F8B500BFF8BC08BC9E467047CD
:10189C00252E3766000000004C41543A2000000011
:1018AC002C204C4F4E3A20000D0A00232D302B20BB
:1018BC0000686C4C00656667454647003031323332
:1018CC00343536373839414243444546003031329D
:1018DC00333435363738396162636465660000002D
:0418EC00550100089A
:0418F00031010008BA
:1018F400040000200000000070000020D800002038
:101904004001002000000000000000000000000072
:1019140000000000000000000000000000000000C3
:1019240000000000000000000000000000000000B3
:1019340000000000000000000000000000000000A3
:0400000508000EE100
:00000001FF
